:020000040800F2
:10000000B807002065020008ED1500084513000838
:1000100031140008A1050008C51600080000000002
:10002000000000000000000000000000F1150008C2
:10003000A305000800000000EF15000821160008C5
:100040007F0200087F0200087F0200087F0200088C
:100050007F0200087F0200087F0200087F0200087C
:100060007F0200087F0200087F0200087F0200086C
:100070007F0200087F0200087F0200087F0200085C
:100080007F0200087F0200087F0200087F0200084C
:100090007F0200087F0200087F0200087F0200083C
:1000A0007F0200087F0200087F0200087F0200082C
:1000B0007F0200087F0200087F0200087F0200081C
:1000C0007F0200087F0200087F0200087F0200080C
:1000D0007F0200087F0200087F0200087F020008FC
:1000E0007F0200087F0200087F0200087F020008EC
:1000F0007F0200087F0200087F0200087F020008DC
:100100007F0200087F0200087F0200087F020008CB
:100110007F0200087F0200087F0200087F020008BB
:100120007F0200087F0200087F0200087F020008AB
:100130007F02000800000000000000007F020008AD
:100140007F0200087F0200087F0200087F0200088B
:100150007F0200087F0200087F0200087F0200087B
:100160007F0200087F0200087F0200087F0200086B
:100170007F0200087F0200087F02000800000000E4
:10018000000000007F0200080000000000000000E6
:100190007F02000800000000000000007F0200084D
:1001A0000000000000000000000000007F020008C6
:1001B0007F0200087F0200087F0200087F0200081B
:1001C0007F02000800F002F800F03CF80AA090E876
:1001D000000C82448344AAF10107DA4501D100F002
:1001E00031F8AFF2090EBAE80F0013F0010F18BF93
:1001F000FB1A43F001031847C0240000E02400006C
:10020000103A24BF78C878C1FAD8520724BF30C842
:1002100030C144BF04680C60704700000023002414
:1002200000250026103A28BF78C1FBD8520728BF06
:1002300030C148BF0B6070471FB502F009FA1FBDFF
:1002400010B510BD00F0E2F81146FFF7F5FF01F020
:100250006BFB00F000F903B4FFF7F2FF03BC00F002
:1002600003F900000948804709480047FEE7FEE718
:10027000FEE7FEE7FEE7FEE7FEE7FEE7FEE7FEE756
:1002800004480549054A064B70470000B5160008AA
:10029000C5010008B8010020B8070020B8030020FD
:1002A000B803002053EA020C00F069802DE9F04BFE
:1002B0004FF00006002B1FBFB3FA83F503FA05F4D5
:1002C00024FA05F65E4012BF1643B2FA82F502FA2E
:1002D00005F4C5F120051EBF22FA05FC44EA0C0412
:1002E000203556EA044C4FEA144418BF641C4FF002
:1002F00000084FF00009904271EB030C39D300293C
:1003000019BFB1FA81F701FA07F6B0FA80F700FADF
:1003100007F6C7F120071EBF20FA07FC46EA0C06C5
:100320002037B6FBF4FCA7EB0507103F07F01F0BC7
:10033000CBF120060CFA0BFB2CFA06F644BFB346B1
:100340000026202FA4BF5E464FF0000B5BEA060C90
:1003500008BF4FF0010B19EB0B09ABFB027C48EB1C
:100360000608C01B06FB02CC0BFB03CC71EB0C0197
:10037000C1E70B46024641464846BDE8F08B13B53F
:100380004FF000004FF00001AFF30080BDE81C40CB
:1003900070474FF0000200B5134694469646203948
:1003A00022BFA0E80C50A0E80C50B1F12001BFF42E
:1003B000F7AF090728BFA0E80C5048BF0CC05DF894
:1003C00004EB890028BF40F8042B08BF704748BFE2
:1003D00020F8022B11F0804F18BF00F8012B704756
:1003E00070477047704710B500F008F8006810BDFE
:1003F00010B5044600F002F8046010BD00487047D4
:100400005801002000487047580100207546FFF74A
:10041000F9FFAE4605006946534620F007008546C1
:1004200018B020B5FFF72CFFBDE820404FF00006C4
:100430004FF000074FF000084FF0000B21F00701CC
:10044000AC46ACE8C009ACE8C009ACE8C009ACE80F
:10045000C0098D46704710B50446AFF300802046B2
:10046000BDE81040FFF7F7BE01491820ABBEFEE71C
:100470002600020070470000464910B54A6822F481
:1004800040324A604A6843681A434A6001684A68D1
:1004900022F480724A6001684A68036942EA0322D2
:1004A0004A6001684A6822F040724A6001684A68FE
:1004B00083681A434A6001688A6822F400628A608D
:1004C00001688A68C3681A438A60816A6FF0706243
:1004D000D14201688A6822F070628A6001688A6885
:1004E0000CD0836A1A438A6001688A6822F04052FD
:1004F0008A6001688A68C36A1A4301E022F04052A8
:100500008A6001688A6822F002028A6001688A684B
:10051000037E42EA43028A6090F8201000290168B5
:100520004A680FD042F400624A6001684A6822F4C7
:1005300060424A6001684A68174C436A04EB4333DF
:100540001A4301E022F400624A600168CA6A22F498
:100550007002CA620168CA6A838B104C04EB0353B1
:100560001A43CA6201688A6822F400728A600168CC
:100570008A6890F8303042EA43228A6001688A68CB
:1005800022F480628A6001688A68406942EA8020B9
:10059000886010BD0023014000E0FFFF0000F0FF75
:1005A000FEE7704772B6FEE778B50024009490F835
:1005B0003C20012A19D0012280F83C200A68072338
:1005C0000568092A13D9EE680A3A02EB4202934001
:1005D0009E43EE600B788A680A3B03EB43039A4024
:1005E0000368DD682A43DA6010E0022078BD2E69D6
:1005F00002EB420293409E432E610B788A6803EB24
:1006000043039A4003681D692A431A614A681F23FD
:10061000072A13D205686E6B521E02EB82029340CA
:100620009E436E630A8893B20A79521E02EB8202DD
:1006300093400268556B2B43536327E005680D2AEE
:1006400012D22E6BD21F02EB820293409E432E6386
:100650000B790A88DB1F92B203EB83039A4003688D
:100660001D6B2A431A6311E0EE6A0D3A02EB820217
:1006700093409E43EE620B790A880D3B92B203EBE6
:1006800083039A400368DD6A2A43DA621B4B0568DC
:10069000194A9D420AD10D68122D07D1556825F4DB
:1006A00000055560556845F48005556005689D4214
:1006B0001DD1134D0B68AB4201D0112B17D15368DC
:1006C00023F480035360536843F4000353600968C4
:1006D000A9420CD10B490C4A0968B1FBF2F101EBBC
:1006E0008101490000E0491E00910029FBD180F8FA
:1006F0003C40002078BD0000002301400020014064
:10070000120000101800002040420F000068C06C6A
:10071000704770B504004FF0000503D0206C002630
:1007200010B107E0012070BD204600F01DF866649E
:1007300084F83C60206CC00610D4206C20F48850F3
:1007400040F0020020642046FFF796FE6664206CAD
:1007500020F0020040F00100206400E0012584F850
:100760003C60284670BD000010B586B004461421D8
:100770006846FFF70EFE1149206888421CD11048D8
:100780000021026842F480720260006800F4807008
:1007900005900B481438026842F0010202600068BC
:1007A00000F001000590022000900320CDE9010136
:1007B0006946044800F080F906B010BD00200140F1
:1007C00044380240000002402DE9F0410446006830
:1007D0000D4681684FF0000749050BD58068C005BC
:1007E00008D5206C40F02000206484F83C70012083
:1007F000BDE8F08100F04EFA064613E0681C11D007
:1008000025B100F047FA801BA8420BD92068006888
:10081000800707D4206C40F00400206484F83C700A
:100820000320E5E7206800688007E7D521686FF0BE
:1008300012000860206C40F4007020642068816819
:1008400011F0405F13D1217E89B9C16A11F4700F94
:1008500002D0806840050AD4206C20F480702064A7
:10086000206CC00403D4206C40F001002064002000
:10087000BEE7000018B50021009190F83C20012A45
:1008800007D0012280F83C2002689368DB0702D081
:1008900011E0022018BD936843F0010393602E4AD3
:1008A0002E4B1268B2FBF3F202EB420200E0521E42
:1008B0000092002AFBD102689368DB0742D0036CE8
:1008C00040F20164A34343F48073036453685B05FF
:1008D00005D5036C23F4005343F480530364036C85
:1008E000DB0404D5436C23F00603436400E0416459
:1008F00080F83C101A496FF02203136049680068C1
:10090000CA06184906D0884224D1816811F0405F98
:1009100013D01FE08842F8D0134A904203D1D1F897
:100920000423D206F1D0114A904213D1D1F8041316
:1009300001F01F011029E8D30CE0816841F08041EB
:10094000816007E0016C41F010010164416C41F0ED
:1009500001014164002018BD1800002040420F0032
:1009600000230140002001400021014000220140FD
:1009700070B54379012B1CD0012646710223037107
:1009800005682B6802F0100440F6FE72A240934303
:10099000D1E900210A43A2401A432A6001680A688B
:1009A000C023A3409A430A600671002141710846A2
:1009B00070BD022070BD70B5040003D02079002501
:1009C00010B105E0012070BD6571204600F008F807
:1009D00002202071256101202071002070BD0000DF
:1009E00010B586B0044614216846FFF7D2FC1149C1
:1009F000206888421CD110480021026842F0005251
:100A00000260006800F0005005900B481038026842
:100A100042F001020260006800F001000590102021
:100A200000900320CDE901016946044800F044F834
:100A300006B010BD00740040403802400000024083
:100A400018B5046800940068104421B11430009077
:100A50000360002018BD0830F9E770B54279012A1B
:100A60001ED001224271022303710468266801F03E
:100A7000100302FA03F52E4326600029016811D005
:100A80000C6804F470153C249C40A54203D14B68CB
:100A900043F002034B60027100214171084670BDB2
:100AA000022070BD0B68C3F383030F2BF3D14B6897
:100AB00043F00103EEE700002DE9F84FDFF8ACA1A9
:100AC0000022012403254FF00F090AF1040BAAF1BB
:100AD000040E00BF0B6804FA02F63340B3426ED135
:100AE0000F7907F00307012F01D0022F16D1876875
:100AF0004FEA420805FA08FC27EA0C07D1F80CC0B7
:100B00000CFA08FC4CEA070CC0F808C04768B74369
:100B10000E79C6F3001696403E4346600E79F643C2
:100B2000B6070AD0C6684FEA420C05FA0CF7BE4376
:100B30008F6807FA0CF73743C7600E7906F0030693
:100B4000022E10D1D60800EB8608D8F8206057078F
:100B50004FEAD76C09FA0CF7BE430F6907FA0CF796
:100B60003743C8F8207006684FEA420C05FA0CF7C4
:100B7000BE430F7907F0030707FA0CF73743076006
:100B80004E6816F4403F6BD0394E376847F48047C3
:100B90003760366822F0030706F480460096354E2B
:100BA00007EB060CDCF8086897074FEA177809FA94
:100BB00008F7BE43304FB84202D100271FE04FE094
:100BC0002E4FB84201D1012719E02D4FB84201D173
:100BD000022714E02B4FB84201D103270FE02A4F20
:100BE000B84201D104270AE0284FB84201D10527B5
:100BF00005E0274FB84201D1062700E0072707FA92
:100C000008F73743CCF80878DAF800605746D1F88F
:100C100004C09E435FEACC2C00D51E433E60DBF847
:100C200000605F46D1F804C09E435FEA8C2C00D57B
:100C30001E433E60DEF800607746D1F804C09E4354
:100C40005FEA8C3C00D51E433E60084F083F3E687B
:100C5000D1F804C09E435FEACC3C00D51E433E6001
:100C6000521C102AFFF436AFBDE8F88F083C014053
:100C700044380240003001400000024000040240BD
:100C800000080240000C0240001002400014024024
:100C90000018024001488068704700000C000020E6
:100CA0000248816802781144816070470C0000207E
:100CB0000B4810B5016841F400710160016841F40E
:100CC00080610160016841F480710160032000F0DF
:100CD00061F80F2000F006F800F024F8002010BDA5
:100CE000003C024070B50D4D04464FF47A712878EF
:100CF000B1FBF0F00A490968B1FBF0F000F00EFB1F
:100D000048B9102C07D200222146501E00F022F8CC
:100D100000206C6070BD012070BD00000C00002040
:100D2000180000200A4808B5016841F480410160BC
:100D3000006800F4804000900548001F016841F001
:100D400080510160006800F08050009008BD0000F4
:100D500044380240F0B40E4B1B680C46C3F3022328
:100D6000C3F10705042D00D90425191D072901D257
:100D7000002300E0DB1E012606FA05F1491E214092
:100D800099409E40761E16403143F0BC00F09BBC5B
:100D90000CED00E0064900F0070208684FF6FF037B
:100DA000184040EA0220034A1043086070470000E0
:100DB0000CED00E00000FA052DE9F0470E460500B5
:100DC00065D0DFF81481D8F80000F7B200F00F000A
:100DD000B04207D288F80070D8F8000000F00F0089
:100DE000B04254D128683D4C810712D5400703D545
:100DF000206840F4E05020602878000703D5206880
:100E000040F4604020602068A96820F0F0000843AA
:100E100020602878C0072DD030496868083901283B
:100E200012D0022813D0032811D00968890700299D
:100E30002DDA216821F0030101432160FFF72AFF29
:100E4000814641F2883A0EE009688903EFE70968B4
:100E50008901ECE7FFF71EFFA0EB0901514502D91C
:100E60000320BDE8F0872068696800F00C00B0EB53
:100E7000810FEFD1D8F80010404601F00F01B142C8
:100E800007D90770006800F00F00B04201D00120C0
:100E9000E7E72878400705D52068E96820F4E050A6
:100EA000084320602878000706D52068296920F4C7
:100EB000604040EAC100206000F018F82168084A4C
:100EC000C1F30311515CC840064908600648006838
:100ED000FFF708FF0020C4E7003C0240083802404A
:100EE0005A2600081800002010000020224810B5E3
:100EF000006810F00C02214815D02149042A11D0B5
:100F00001D4C241F082A0FD00C2A0CD122682368FC
:100F100002F03F025B0221D52068C0F38810A0FBDD
:100F2000010120E0084610BD2268236802F03F025C
:100F30005B0205D52068C0F38810A0FB010104E026
:100F40002168C1F38811A1FB00010023FFF7AAF972
:100F50002168C1F30141491C49000AE02168C1F33D
:100F60008811A1FB00010023FFF79CF92168C1F360
:100F70000271B0FBF1F010BD083802400024F4000B
:100F800040787D012DE9F84F04007DD0DFF878B37B
:100F90002078ABF10407C007A7F1040550D0DBF8B7
:100FA00000105846C1F3810101290FD00168C1F337
:100FB0008101022902D13968490207D40068C0F3CF
:100FC0008100032809D13868400206D528688003CB
:100FD00036D560680028D8D032E06068B0F5803F30
:100FE00010D0B0F5A02F286810D020F480302860F1
:100FF000286820F4802028606068A0B1FFF74AFECE
:1010000006460CE0286840F48030F4E740F4802085
:101010002860F7E7FFF73EFE801B642876D8286833
:101020008003F7D50CE0FFF735FE064605E000BF6C
:10103000FFF730FE801B6428F0D828688003F7D4BF
:101040002078DFF8C89280074FF0000A44D5DBF81B
:101050000010584611F00C0F0FD00168C1F3810148
:10106000022902D13968490207D50068C0F381001E
:1010700003280AD13868400207D42868800715D5AC
:10108000E068012800D111E03AE1E068B0B1012048
:10109000C9F80000FFF7FEFD064604E0FFF7FAFD81
:1010A000801B0228BAD828688007F7D528682169EC
:1010B00020F0F80040EAC10028600DE0C9F800A067
:1010C000FFF7E8FD064604E0FFF7E4FD801B022879
:1010D0001CD828688007F7D42078000727D5DFF8C8
:1010E00028828B48616908F16C0881B10121016097
:1010F000FFF7D0FD064604E0FFF7CCFD801B022879
:1011000004D8D8F800008007F6D510E089E0C0F8D0
:1011100000A0FFF7BFFD064605E000BFFFF7BAFDE0
:10112000801B02287DD8D8F800008007F6D42078EC
:10113000400769D574484FF0000838300068C00097
:101140000BD471483830016841F08051016000686B
:101150004FF0010800F0805000906E4E3068C005DE
:1011600011D4306840F480703060FFF793FD009038
:1011700006E000BFFFF78EFD0099401A022850D804
:101180003068C005F6D5604EA068683601280FD0DB
:101190000528306810D020F001003060306820F061
:1011A00004003060A068B8B1FFF774FD00900FE054
:1011B000306840F00100F4E740F004003060F7E7E9
:1011C000FFF768FD0099411A41F28830814264D8E6
:1011D00030688007F4D50EE0FFF75CFD009007E073
:1011E000FFF758FD0099411A41F28830814254D8E6
:1011F00030688007F4D4B8F1000F05D04248383089
:10120000016821F080510160A069A8B3DBF80010EB
:10121000C1F38101022947D00228C9F860A005D096
:1012200000E03AE0FFF736FD044639E0FFF732FD13
:10123000064604E0FFF72EFD801B02282DD8286803
:101240008001F7D4F4E907010843E168324A49080C
:1012500002EB0141A26841EA82110843217C40EA85
:101260000160217D40EA017038600120C9F860000A
:10127000FFF710FD044606E044E000BFFFF70AFD5B
:10128000001B022809D828688001F7D53AE000BF82
:10129000FFF700FD001B022802D90320BDE8F88FEC
:1012A00028688001F4D42DE00128F7D03868E2697D
:1012B00000F48001914223D1226A00F03F01914263
:1012C0001ED147F6C071626A0140B1EB821F17D18F
:1012D000A26A4FF0FF3300F4403103EB5202B1EB4E
:1012E000024F0DD194F82C2000F07061B1EB026F29
:1012F00006D194F8301000F0E040B0EB017F01D04F
:101300000120CBE70020C9E708380240000047422F
:10131000800E4742007000400000FFFF10B5401EE5
:10132000B0F1807F01D3012010BD4FF0E024606157
:101330000F21601700F0C7F90020A061072020618D
:10134000002010BDFEE700007FB500241448009483
:101350000194029411490394C0E90014846004616B
:10136000047680F820400F49C0E90A140125C561C0
:10137000C46080F830404561FFF7CBF908B1FFF752
:1013800011F90095CDE9015469460548FFF70CF9BC
:10139000002801D0FFF706F97FBD000000200140C2
:1013A000980000200100000F1CB500240C49009497
:1013B0000A48019408600846FFF7FDFA08B1FFF7F4
:1013C000F1F800940022694605480194FFF7D0FA2D
:1013D000002801D0FFF7E6F81CBD000000740040B3
:1013E000E000002000B587B014216846FEF7D1FF69
:1013F0000D480021026842F001020260026802F01A
:1014000001020592026842F0020202600068029145
:1014100000F0020005900420CDE900016946034870
:10142000FFF74AFB07B000BD30380240000402401D
:10143000FEE7000010B5082000F04AFB0D490C48FB
:101440000E4A08600C4911600D490160012141609C
:101450000D490C480E4A08600C49116000210160DA
:1014600041608160C160BDE810400348FFF702BAE7
:10147000200000205C000020980000206000002078
:10148000640000204801002068000020E0000020E7
:101490006C0000202DE9F0414A4E4B4D00242DED0B
:1014A000068B4A483168FFF78FF920B94748FFF7A4
:1014B0002DF925F81400641C2404240CF1D028888C
:1014C00000F0A5FD424DC5E900014048FFF7D2F903
:1014D0009FED409B95ED00AB404EB0EE498AF0EE9B
:1014E000698A002405F1100707EBC400B0EE4A0A30
:1014F000F0EE6A0A90ED00AB80ED000B06EBC40045
:1015000053EC102B90ED001B51EC110B00F0CEFDB5
:1015100053EC182B00F006FB41EC180B641C082C54
:10152000E2DB06EBC40053EC1A2B90ED000B51EC00
:10153000100B00F0BBFD53EC182B00F0F3FA41EC5C
:10154000100B00F0D1F8B0EE408AF0EE608A00F0A7
:10155000A9FA30B9B0EE480AF0EE680A00F080FA55
:1015600020B1B0EE498AF0EE698A0BE09FED1C1BBA
:10157000B0EE480AF0EE680A00F042F9B0EE408A98
:10158000F0EE608A53EC192B51EC180B00F052FD71
:1015900051EC180B05D200F0B9FA00F00BFD4042F7
:1015A00001E000F007FD83B200222B8111460E48B6
:1015B000FFF746FABDEC068B0021BDE8F0410A4872
:1015C000FFF74BBA5800002064000020980000206C
:1015D000F800002000000000000000007026000855
:1015E000000000000000F040E0000020FEE770472F
:1015F00070470000401EB0F1807F01D3012070478A
:101600004FF0E0214861054AF02082F8140D0020D7
:101610008861072008610020704700000FE000E0AB
:101620000348016811B10168491E0160FFF738BB2A
:101630000800002010B594B034216846FEF7A9FEDA
:1016400014210DA8FEF7A5FE18480024016841F0FA
:1016500080510160006800F08050129014480168C9
:1016600021F4404141F4804101600068069400F497
:10167000404012900220009001200390102004901E
:101680006846FFF77FFC08B172B6FEE70F20CDE990
:101690000D040F94109400210DA81194FFF78CFBFA
:1016A000002801D072B6FEE714B010BD40380240E9
:1016B000007000400248016841F470010160704709
:1016C00088ED00E0FEE70907090E002804DB00F1C1
:1016D000E02080F80014704700F00F0000F1E020D7
:1016E00080F8141D704700002DE9F0412DED020B2C
:1016F0009FED3D0B2DED028B9FED3D8BDDE90254FF
:10170000C4F30A50A0F2FF36142E37DA002E18DA8E
:1017100053EC102B9DED020B51EC100B00F002FA74
:1017200053EC182B00F068FE57D2002CA4BF002405
:10173000254652DA24F00040284318BF2E4C4CD0E6
:101740001AE02E4820FA06F704EA070028431FD0C3
:1017500053EC102B9DED020B51EC100B00F0E2F955
:1017600053EC182B00F048FE37D2002C03DA4FF46C
:101770008010F0400444BC4300252EE0332E07DCEB
:10178000A6F114004FF0FF3121FA00F73D4206D1D7
:101790009DED020BBDEC028B02B0BDE8F08153EC75
:1017A000102B9DED020B51EC100B00F05BFE53EC87
:1017B000182B00F021FE10D2002C0DDA142E08BFD9
:1017C000641C09D0C6F13400012101FA00F028445C
:1017D000A84238BF641C0546BD43CDE902549DEDC7
:1017E000020BD7E7000000009C7500883CE4377EC0
:1017F00000000000000000000000F0BFFFFF0F002D
:1018000010B52DED040B86B09DED060B10EE100A01
:1018100010EE901A8DED000B002818BF0120084330
:1018200020F00040C0F17F6000F1E040C00F21D106
:101830009DED080B10EE101A10EE900A8DED000BC6
:10184000002918BF0121084320F00040C0F17F604B
:1018500000F1E040C00F0DD129490798B1EB400FCE
:1018600004BF0698002842D00998400004BF089899
:1018700000283CD09DED080B53EC102B9DED060B82
:1018800051EC100B00F00AFDCDE902019DED020BB9
:1018900040F2FF7110EE900A8DED000B31EA10500E
:1018A00021D00798039900F0004001F000418842E0
:1018B00019D09DED080B8DED040B9DED020B8DED08
:1018C000000B10EE900A059961F31E0005909DED46
:1018D000041B9DED020B51EC110B53EC102B00F08F
:1018E000C1FDCDE902019DED020B0AB010BD012042
:1018F000FEF77EFD0AB0BDE8104000F005B800001C
:101900000000E0FF000000009FED050B10B553EC58
:10191000102B51EC100B00F0B9F941EC100B10BD7D
:1019200000000000000000002DED028BFFF7C0F961
:10193000FFF780FEFFF756FDFFF706FDFFF734FDCA
:10194000284D286800F063FB9FED278B53EC182B84
:1019500000F09CF900F02EFBFFF74CFE244C012612
:1019600038B366603706286800F051FB88460546A4
:101970006068401C606048EC105B53EC182B51EC25
:10198000100B00F083F900F015FB6168B0FBF1F07B
:10199000B842EDD248EC105B53EC182B51EC100B15
:1019A00000F074F900F006FB6168B0FBF1F0FFF79E
:1019B00021FE6068A0600E4D00272F70FFF73AFDF2
:1019C000DFF83080A0680028FCD16068A06028782B
:1019D00018B1D8F8000008A101602E70FFF75AFD79
:1019E0002F70EFE7180000200000000000408F403B
:1019F000000000206C2600084F76657272756E003C
:101A00001CB503480190002000909DED000B1CBD0B
:101A10000000F07F4FF0FF4000EE100A704700001A
:101A20001CB503480190002000909DED000B1CBDEB
:101A30000000F0FF014800EE100A7047000080FF30
:101A40001CB503480190002000909DED000B1CBDCB
:101A50000000F8FF014800EE100A70470000C0FFC8
:101A600010B50F4C2DED028BB0EE408AF0EE608A7F
:101A700094ED040B51EC180B53EC102B00F05EFAB4
:101A800008D094ED060B51EC180B53EC102B00F022
:101A900055FA03D10120BDEC028B10BD0020FAE7FE
:101AA000700000201CB510EE900A8DED000BC0F305
:101AB0000A50A0F5E061FF3908D110EE900A00034A
:101AC00002D110EE100A08B101201CBD00201CBD7F
:101AD00010B5FFF7B5FF0C4C84ED080BFFF7BAFF0C
:101AE00084ED020AFFF78CFF84ED040BFFF792FFF1
:101AF00084ED000AFFF794FF84ED060BFFF79AFFD1
:101B000084ED010A10BD00007000002081F000414A
:101B1000704780F00040704721F00041704720F08E
:101B20000040704710B591EA030F48BF83F00043AF
:101B300000F1AC84841A71EB030C05D2121943EB4B
:101B40000C03001B61EB0C01DFF824E14FEA115498
:101B5000A4EB135C1EEA430F18BF9EEA445F73D0E8
:101B600023EA0E03DCF1200E21EA045143F4801332
:101B700032D322FA0CFE10EB0E0023FA0CFE41EBDE
:101B80000E01CCF1200E03FA0EFE10EB0E0051F107
:101B90000001B1F5801FCCF1200E32D201EB0451CF
:101BA00012FA0EF2BDE8104058BF7047401C38BF13
:101BB0005FEA420218BF7047002814BF20F00100FE
:101BC00041F100014FEA410313F5001F38BF704790
:101BD000A1F1C04100F00ABC012A43EB0302ACF1C1
:101BE000200CDCF11F0E32BF4FF0000E23FA0CF375
:101BF00010EB030041EB0451B4EB115FD0D0A1EB2B
:101C0000045101F5801149085FEA300001EB0451ED
:101C10000ED350F1000038BF12FA0EFE08D1BDE815
:101C20001040C9E7401C38BF5FEA4202CAD1C3E78F
:101C3000BDE810404FEA410313F5001F38BF70475D
:101C4000A1F1C04100F0D2BB9EEA445F08D011EA86
:101C50005E0FBDE8104004BF01F000410020704756
:101C6000BDE8104070B500F0CBFA00BF64FBBE3E8B
:101C70000000E0FF491058BFC1F140415B1058BF60
:101C8000C3F140438B42EFF3008070472DE9C04120
:101C900030B4DFF8A0C23CEA111418BF3CEA1314B8
:101CA00000F0EC8081EA03051CEA111444EAD574C3
:101CB00018BF1CEA131500F0C780A4EB05044FF011
:101CC000004545EAC12145EAC32341EA505143EAB0
:101CD000525304F17F74994204F500344FEAC02056
:101CE0004FEAC22208BF904200F09C804FEA136581
:101CF0000FF24016765D4FEA134506FB05F7C7F174
:101D0000807706FB07F74FEAD737A7FB03687642D1
:101D1000C8F58038A7FB06CE38BFA8F1010807FB3D
:101D200008E64FF0000EA6FB028CE6FB03CEDCF1CA
:101D3000000CCEF1004E38BFAEF1010EA6FB0C58E0
:101D40004FF000074FF00005E6FB0E87A1FB08C629
:101D5000A0FB07CE16EB0E0645F10005E1FB07657B
:101D600015F1E04E7EBFA4F580345FEA46066D4172
:101D700016F1800745F100054FEA17274FEA06667E
:101D800047EA0567A6F1DE46B6F1805F4FEA152502
:101D90001FD9384624F0010C05EBC471BCF1FE6F6D
:101DA00001EB0C1102D8F0BCBDE8008124425CBFFD
:101DB00001F5801E9EEAC47F02D4F0BCBDE800811C
:101DC000244238D4F0BCA1F1C041BDE8004100F08C
:101DD0000DBB4FEAD22242EA43524FEAD323A7FB7C
:101DE00002864FEAD02040EA415007FB03661EEA14
:101DF0000E0F4FEAD12105FB026658BFA6EB005635
:101E0000B6EB00564FEA520E4EEAC37E18EB0E0EAA
:101E100056EB530EBDD518EB02085E417F1C55F101
:101E20000005B6E74FF480154FF000074FF00006AD
:101E30004FF00008ADE7F0BC4FF0000001F1C041E9
:101E400001F00041BDE8008111EA0C1F0CEA1315F6
:101E500000D00CE013EA0C1F00F025804FF00000CA
:101E6000F0BC81EA030101F00041BDE80081F0BC53
:101E7000BDE8004181EA030100F0B8BAF0BCBDE85A
:101E8000004170B500F0BCF9097EFC3E00F007B8D7
:101E900081EA03014FF0000001F00041704781EA40
:101EA000030100F0A3BAF0BCBDE800414FF0000010
:101EB00021497047FFFDFBF9F7F5F4F2F0EEEDEB89
:101EC000E9E8E6E4E3E1E0DEDDDBDAD8D7D5D4D338
:101ED000D1D0CFCDCCCBCAC8C7C6C5C4C2C1C0BF84
:101EE000BEBDBCBBBAB9B8B7B6B5B4B3B2B1B0AF8A
:101EF000AEADACABAAA9A8A8A7A6A5A4A3A3A2A16E
:101F0000A09F9F9E9D9C9C9B9A9999989797969528
:101F100095949393929191908F8F8E8E8D8C8C8BC4
:101F20008B8A89898888878786858584848383824C
:101F3000828181800000FF070000F87F51EA030CD6
:101F400017D41CF5801F58BFBCF5801F00F1068018
:101F5000994218BF704708BF9042704707D711F5E4
:101F6000801F58BF13F5801F19D4994270478942CA
:101F700070471CF5801F08D5BCF5801FF7D58B4234
:101F800018BF704708BF824270474FF4001C1CEB1B
:101F9000410F38BF1CEB430F01D28B42704770B525
:101FA00000F02EF9922449004FF000514FF0805379
:101FB000FFF760BE4FEA1153A3F58063D3F11E0310
:101FC000A8BFD3F1200C08DB4FF0004242EAC12247
:101FD00052EA505232FA03F0704709420BD4102BE8
:101FE000C4BF0020704703F5787CBCF1FF3F05D0EB
:101FF0004FF0FF3070474FF00000704770B500F0B1
:10200000FFF800BF4992248000207047F0E7B0FA43
:1020100080F310FA03F10AD0C3F11D0303F58063C6
:102020004FEA41504FEA035202EBD12170474FF083
:102030000000704751EA030C17D41CF5801F58BFED
:10204000BCF5801F00F10680994218BF704708BF99
:102050009042704707D711F5801F58BF13F5801FB6
:1020600019D499427047894270471CF5801F08D5E2
:10207000BCF5801FF7D58B4218BF704708BF82425E
:1020800070474FF4001C1CEB410F38BF1CEB430F93
:1020900001D28B42704770B500F0B2F8922449002B
:1020A0004FF000514FF08053FFF7E4BDDFF848C117
:1020B00070B51CEA111E1EBF1CEA13159EEA0C0F18
:1020C00095EA0C0F00F06F8081EA030423EA4C13B9
:1020D0004EEAD47E21EA4C1141F4801143F480137E
:1020E000AE44A1FB024CA0FB0365AEF17F7E361926
:1020F00055EB0C05A1FB034C4CF10003A0FB021CAB
:1021000016EB0C06654153F10003094218BF46F077
:10211000010613F4007F0BD14FEA03314FEA05307B
:10212000340341EA155140EA16506FF003020AE009
:102130004FEAC3214FEAC520F40241EA555140EA73
:1021400056506FF0020202EB2E4201EB025585EA77
:10215000CE710AD05FEA440C18BF24F0004450F15D
:10216000000041F1000120EAD47040F2FE7C62459B
:1021700000D270BDA84214BF4FF080444FF04044DD
:10218000002E08BF0024BEF1806FA8BFA1F1C0419E
:10219000BDE8704080F22A814FF0000001F1C0419B
:1021A00001F0004170479EEA0C0F0CEA131518BFAE
:1021B00095EA0C0F06D04FF0000081EA030E0EF0F6
:1021C000004170BD00F01CF88900013E00F007B826
:1021D00000F009B84FEA430C5FEA5C5C08D081EA82
:1021E000030100F003B94FEA410C5FEA5C5CF6D1F1
:1021F0004FF00000014970470000FF070000F87F22
:102200000EF1020E2EF0030E5EF8046B364205D47A
:10221000012A43EB030515F5001F12D8012841EBF5
:10222000010C1CF5001F0CD80ED14FEAD17C15F51E
:10223000001F0CEB4C0C0CF1020C08BF4CEBD37CD8
:1022400004E04FF0080C01E04FEAD37C0CEB4C05A6
:1022500026FA05F606F00706B6F1040C06D20EEBD8
:10226000860CBDE870404CF0010C6047DFE80CF0D4
:10227000090B02024FF000414FF00000A1F50021D0
:1022800070BD19461046012851EB010418BFD4F562
:10229000001484BF002001F0004170BDDFF844C18C
:1022A00070B53CEA111418BF3CEA131500F08F809A
:1022B00011F1004F1CEA13150CEA111468BF45F028
:1022C000050518BF11EA0C1F00F079802E4621EA9F
:1022D0004C1123EA4C1341F4801143F48013A5F50B
:1022E0008035AC423DDD801A9941A4F5803609D590
:1022F0004042C1F1000134BFB1F10101B1F100016F
:1023000085F0010511F4F01F08D011F4801FE8D109
:10231000400041EB0101A4F58034F6E721F00041D3
:10232000B1FA81F6202E04BFB0FA80FE0EF120062D
:10233000A6F10B06B6F1200EA4EB06440CD2C6F1B2
:10234000200E01FA06F120FA0EF641EA0601CEF15E
:10235000200600FA06F003E000FA0EF14FF000004C
:10236000BFE750EA410E23D04FEA244EBEEB254F83
:102370000FDB994208BF904204D00AD3520043EBCE
:102380000303B0E74FEA1646B6EB144F08BF85F0DB
:102390000105B4F5803401EB041181EAC57100DB5D
:1023A00070BD01F1C0414FF0000001F0004170BD6F
:1023B0004FEA45714FF0000001F0004170BD1CEA8A
:1023C000131F09D04FF0000001F0004170BDFFF76E
:1023D00017FF00BFEDFFFF3EBDE870404FF000006B
:1023E000014970470000FF070000F87F0808A0F5CA
:1023F00000114FEA3101704753EA010C17D41CF564
:10240000801F58BFBCF5801F00F106808B4218BFAB
:10241000704708BF8242704707D713F5801F58BF27
:1024200011F5801F19D48B4270479B4270471CF5F1
:10243000801F08D5BCF5801FF7D5994218BF70479B
:1024400008BF904270474FF4001C1CEB430F38BF8D
:102450001CEB410F01D2994270470FB40CBC03BC76
:10246000FFF719BE91EA030F10B581F000413FF567
:1024700061AB83F0004300F009B8000010B591EAA9
:10248000030F48BF83F000433FF554AB841A71EB50
:10249000030C07D212198CF0004C43EB0C03001B09
:1024A00061EB0C01DFF8A4E14FEA1154A4EB135CDB
:1024B0001EEA430F18BF9EEA445F00F0B08023EA93
:1024C0006E03524221EA0451C3EB6E0338BF5B1E18
:1024D000DCF1200E25D322FA0CFE10EB0E0043FA9D
:1024E0000CFE41EB0E01CCF1200E03FA0EFE10EBB8
:1024F0000E0051F10001CCF1200E29D412FA0EF297
:1025000001EB0451BDE8104058BF7047401C1CBF90
:10251000B2F1004F704700280CBF491C20F00100A9
:10252000704712EB020E43EB030218BF4FF0010E8F
:102530004EEA4202ACF1200CDCF11E0E54D943FAF3
:102540000CFE10EB0E0051F1FF31CCF11E0ED5D573
:102550000EF1010E12FA0EFE404141EB010101EBBA
:10256000445C5FEA5C5C10D910EBDE7001EB045157
:1025700038BFBEF1004FBDE8104018BF70470028BB
:102580000CBF491C20F00100704730D24FEAD42C18
:1025900011F5001124F400641BD0B1FA81F20B3A5A
:1025A000A41AA41ED2F12003914030FA03F3194378
:1025B000904001EBCC71002C01EB0451BDE81040C0
:1025C000A8BF704701F1C0414FF0000001F0004189
:1025D0007047B0FA80F310FA03F100D110BDE41A8D
:1025E000173C4805C90AE4E701EB045110BD491046
:1025F00001EB0451BDE810404FEA300002E04FF01B
:10260000000170474A0008BF0042F8D0B2F5001F31
:1026100028BF704701F000414FF0000070479EEA6C
:10262000445F07D011EA5E0FBDE8104004BF0021EF
:1026300000207047BDE8104070B5FFF7E1FD00BF16
:1026400040DFF63E83F00041104670470000E0FF97
:102650004FF04070E1EE100A7047000000000000EB
:102660000000010203040607080900001C00002006
:10267000B937B54915F9943F494F3C4EDE22B33F77
:102680009C12F4930F71C13F748BCB8BDC76C93FE6
:102690003E0CBD394224CC3F748BCB8BDC76C93FDA
:1026A0009C12F4930F71C13F494F3C4EDE22B33F61
:1026B000B937B54915F9943FD82600080000002025
:1026C0009800000000020008702700089800002011
:1026D000200700001C0200080000000001000000AC
:1026E00001000000010000001000000000000000D8
:1026F0000024F400000000000000000000000000C2
:1027000000000000000000000000000001000000C8
:1027100000000000000000000000000000000000B9
:1027200000000000000000000000000000000000A9
:102730000A0000000000000000000000000000008F
:102740000000000000000000000000000000000089
:102750000000000000000000000000000000000079
:102760000000000000000000000000000000000069
:04000005080001C529
:00000001FF
